:03000000020404F3
:0C040400787FE4F6D8FD75810D020254EB
:100254001202BD1203B81203261203B820B1287D7E
:10026400097FB81200038F08EF2403FFE433FED3A1
:10027400EF94FFEE6480948040057508FF802C7431
:10028400032508F508802420B02A7D097FB81200D0
:10029400038F08EF24FDE434FFC364809480500589
:1002A400E4F508800674FD2508F508AB087D097F90
:0902B400B81200F61203B8809A9A
:1002BD00D2B3D2B4D2B7D290D291D292D295D296A5
:1002CD00D2B1D2B01203B8C2951203B8D2957F64E1
:1002DD007E001203BC7BFD7D037FB8120396E4FB09
:1002ED007D047FB81203967B407D0D7FB812039677
:1002FD007B047D127FB81203967B687D167FB81242
:10030D0003967BB17D097FB8120396C2921203B892
:09031D00D2927F0A7E000203BCAB
:0401BC008F098D0A10
:1001C000C2917F027E0012038B750B00750C07AF86
:1001D0000CE509A807088002C313D8FC30E004D25C
:1001E000B78002C2B7120387D290120387C290125F
:1001F0000387E50C150C7002150BC3E50B648094A6
:100200008050CC7F027E0012038B750B00750C07AB
:10021000AF0CE50AA807088002C313D8FC30E0043D
:10022000D2B78002C2B7120387D290120387C2905E
:10023000120387E50C150C7002150BC3E50B6480E7
:10024000948050CC7F027E0012038BD2917F027E7D
:040250000002038B1A
:100326007D357F011201BC7D087F041201BCE4FD0E
:100336007F051201BC7D087F071201BC7DEB7F089B
:100346001201BC7D107F091201BC7D167F0A1201C5
:10035600BC7D057F0B1201BC7D167F0C1201BC7D96
:06036600487F060201BC05
:0403B8007F0A7E003A
:1003BC00EF1FAA0670011E4A60107C017D06ED1D20
:0A03CC00AA0470011C4A60E880F4E6
:0103D6002204
:10036C007F017E0012038BC2B47F017E0012038BCF
:0F037C00D2B47F017E0012038BC2B47F017E00DA
:0B038B00EF1FAC0670011E4C70F62244
:0803D700A907E9C31325E0F9B1
:1003DF00D2B3D2B4120387C2B3120387C2B47F0160
:0503EF007E0002038BFB
:1003F400C2B3D2B4120387D2B37F017E0002038B4F
:100003001203D77B077A00AF03E9A807088002C36E
:1000130013D8FC30E004D2B38002C2B312037ED201
:10002300B4120387C2B4D2B3120387EB1B70011A55
:10003300BAFFD4BBFFD120B3FD12036C7A007B0758
:10004300AF03EDA807088002C313D8FC30E004D245
:10005300B38002C2B312037ED2B4120387C2B4D2F6
:10006300B3120387EB1B70011ABAFFD4BBFFD12075
:10007300B3FD12036CE9C31325E0F9430101120335
:10008300DF7A007B07AF03E9A807088002C313D810
:10009300FC30E004D2B38002C2B312037ED2B412A6
:1000A3000387C2B4D2B3120387EB1B70011ABAFFE2
:1000B300D4BBFFD120B3FD12037ED2B4120387C297
:1000C300B47F647E0012038BE4FDFA7B0712037E88
:1000D300D2B4120387ED25E0FD30B303430501EBF2
:1000E3001B70011ABAFFE6BBFFE312036C1203F4A1
:0200F300AF0557
:0100F50022E8
:0200F6008D0C6F
:1000F8001203D7900007AF82E9A807088002C3134C
:10010800D8FC30E004D2B38002C2B312037ED2B46A
:10011800120387C2B4D2B3120387E5821582700234
:100128001583E582B4FFCFE583B4FFCA20B3FD127F
:10013800036C900007AF82E50CA807088002C31380
:10014800D8FC30E004D2B38002C2B312037ED2B42A
:10015800120387C2B4D2B3120387E58215827002F4
:100168001583E582B4FFCEE583B4FFC920B3FD1241
:10017800036C900007AF82EBA807088002C313D86E
:10018800FC30E004D2B38002C2B312037ED2B412B0
:100198000387C2B4D2B3120387E5821582700215B1
:1001A80083E582B4FFCFE583B4FFCA20B3FD120311
:0401B8006C0203F4DE
:100396008F098D0A8B0B1200F67F147E001203BCA8
:1003A600AD0AAF09120003EF650B60037F00227FE1
:0203B600012222
:00000001FF
